{
  "contractName": "ComposableTopDown",
  "abi": [
    {
      "anonymous": false,
      "inputs": [
        {
          "indexed": true,
          "internalType": "address",
          "name": "_owner",
          "type": "address"
        },
        {
          "indexed": true,
          "internalType": "address",
          "name": "_approved",
          "type": "address"
        },
        {
          "indexed": true,
          "internalType": "uint256",
          "name": "_tokenId",
          "type": "uint256"
        }
      ],
      "name": "Approval",
      "type": "event"
    },
    {
      "anonymous": false,
      "inputs": [
        {
          "indexed": true,
          "internalType": "address",
          "name": "_owner",
          "type": "address"
        },
        {
          "indexed": true,
          "internalType": "address",
          "name": "_operator",
          "type": "address"
        },
        {
          "indexed": false,
          "internalType": "bool",
          "name": "_approved",
          "type": "bool"
        }
      ],
      "name": "ApprovalForAll",
      "type": "event"
    },
    {
      "anonymous": false,
      "inputs": [
        {
          "indexed": true,
          "internalType": "address",
          "name": "_from",
          "type": "address"
        },
        {
          "indexed": true,
          "internalType": "uint256",
          "name": "_tokenId",
          "type": "uint256"
        },
        {
          "indexed": true,
          "internalType": "address",
          "name": "_childContract",
          "type": "address"
        },
        {
          "indexed": false,
          "internalType": "uint256",
          "name": "_childTokenId",
          "type": "uint256"
        }
      ],
      "name": "ReceivedChild",
      "type": "event"
    },
    {
      "anonymous": false,
      "inputs": [
        {
          "indexed": true,
          "internalType": "address",
          "name": "_from",
          "type": "address"
        },
        {
          "indexed": true,
          "internalType": "uint256",
          "name": "_tokenId",
          "type": "uint256"
        },
        {
          "indexed": true,
          "internalType": "address",
          "name": "_erc20Contract",
          "type": "address"
        },
        {
          "indexed": false,
          "internalType": "uint256",
          "name": "_value",
          "type": "uint256"
        }
      ],
      "name": "ReceivedERC20",
      "type": "event"
    },
    {
      "anonymous": false,
      "inputs": [
        {
          "indexed": true,
          "internalType": "address",
          "name": "_from",
          "type": "address"
        },
        {
          "indexed": true,
          "internalType": "address",
          "name": "_to",
          "type": "address"
        },
        {
          "indexed": true,
          "internalType": "uint256",
          "name": "_tokenId",
          "type": "uint256"
        }
      ],
      "name": "Transfer",
      "type": "event"
    },
    {
      "anonymous": false,
      "inputs": [
        {
          "indexed": true,
          "internalType": "uint256",
          "name": "tokenId",
          "type": "uint256"
        },
        {
          "indexed": true,
          "internalType": "address",
          "name": "_to",
          "type": "address"
        },
        {
          "indexed": true,
          "internalType": "address",
          "name": "_childContract",
          "type": "address"
        },
        {
          "indexed": false,
          "internalType": "uint256",
          "name": "_childTokenId",
          "type": "uint256"
        }
      ],
      "name": "TransferChild",
      "type": "event"
    },
    {
      "anonymous": false,
      "inputs": [
        {
          "indexed": true,
          "internalType": "uint256",
          "name": "_tokenId",
          "type": "uint256"
        },
        {
          "indexed": true,
          "internalType": "address",
          "name": "_to",
          "type": "address"
        },
        {
          "indexed": true,
          "internalType": "address",
          "name": "_erc20Contract",
          "type": "address"
        },
        {
          "indexed": false,
          "internalType": "uint256",
          "name": "_value",
          "type": "uint256"
        }
      ],
      "name": "TransferERC20",
      "type": "event"
    },
    {
      "inputs": [
        {
          "internalType": "address",
          "name": "_to",
          "type": "address"
        }
      ],
      "name": "mint",
      "outputs": [
        {
          "internalType": "uint256",
          "name": "",
          "type": "uint256"
        }
      ],
      "stateMutability": "nonpayable",
      "type": "function"
    },
    {
      "inputs": [
        {
          "internalType": "uint256",
          "name": "_tokenId",
          "type": "uint256"
        }
      ],
      "name": "rootOwnerOf",
      "outputs": [
        {
          "internalType": "bytes32",
          "name": "rootOwner",
          "type": "bytes32"
        }
      ],
      "stateMutability": "view",
      "type": "function",
      "constant": true
    },
    {
      "inputs": [
        {
          "internalType": "address",
          "name": "_childContract",
          "type": "address"
        },
        {
          "internalType": "uint256",
          "name": "_childTokenId",
          "type": "uint256"
        }
      ],
      "name": "rootOwnerOfChild",
      "outputs": [
        {
          "internalType": "bytes32",
          "name": "rootOwner",
          "type": "bytes32"
        }
      ],
      "stateMutability": "view",
      "type": "function",
      "constant": true
    },
    {
      "inputs": [
        {
          "internalType": "uint256",
          "name": "_tokenId",
          "type": "uint256"
        }
      ],
      "name": "ownerOf",
      "outputs": [
        {
          "internalType": "address",
          "name": "tokenOwner",
          "type": "address"
        }
      ],
      "stateMutability": "view",
      "type": "function",
      "constant": true
    },
    {
      "inputs": [
        {
          "internalType": "address",
          "name": "_tokenOwner",
          "type": "address"
        }
      ],
      "name": "balanceOf",
      "outputs": [
        {
          "internalType": "uint256",
          "name": "",
          "type": "uint256"
        }
      ],
      "stateMutability": "view",
      "type": "function",
      "constant": true
    },
    {
      "inputs": [
        {
          "internalType": "address",
          "name": "_approved",
          "type": "address"
        },
        {
          "internalType": "uint256",
          "name": "_tokenId",
          "type": "uint256"
        }
      ],
      "name": "approve",
      "outputs": [],
      "stateMutability": "nonpayable",
      "type": "function"
    },
    {
      "inputs": [
        {
          "internalType": "uint256",
          "name": "_tokenId",
          "type": "uint256"
        }
      ],
      "name": "getApproved",
      "outputs": [
        {
          "internalType": "address",
          "name": "",
          "type": "address"
        }
      ],
      "stateMutability": "view",
      "type": "function",
      "constant": true
    },
    {
      "inputs": [
        {
          "internalType": "address",
          "name": "_operator",
          "type": "address"
        },
        {
          "internalType": "bool",
          "name": "_approved",
          "type": "bool"
        }
      ],
      "name": "setApprovalForAll",
      "outputs": [],
      "stateMutability": "nonpayable",
      "type": "function"
    },
    {
      "inputs": [
        {
          "internalType": "address",
          "name": "_owner",
          "type": "address"
        },
        {
          "internalType": "address",
          "name": "_operator",
          "type": "address"
        }
      ],
      "name": "isApprovedForAll",
      "outputs": [
        {
          "internalType": "bool",
          "name": "",
          "type": "bool"
        }
      ],
      "stateMutability": "view",
      "type": "function",
      "constant": true
    },
    {
      "inputs": [
        {
          "internalType": "address",
          "name": "_from",
          "type": "address"
        },
        {
          "internalType": "address",
          "name": "_to",
          "type": "address"
        },
        {
          "internalType": "uint256",
          "name": "_tokenId",
          "type": "uint256"
        }
      ],
      "name": "transferFrom",
      "outputs": [],
      "stateMutability": "nonpayable",
      "type": "function"
    },
    {
      "inputs": [
        {
          "internalType": "address",
          "name": "_from",
          "type": "address"
        },
        {
          "internalType": "address",
          "name": "_to",
          "type": "address"
        },
        {
          "internalType": "uint256",
          "name": "_tokenId",
          "type": "uint256"
        }
      ],
      "name": "safeTransferFrom",
      "outputs": [],
      "stateMutability": "nonpayable",
      "type": "function"
    },
    {
      "inputs": [
        {
          "internalType": "address",
          "name": "_from",
          "type": "address"
        },
        {
          "internalType": "address",
          "name": "_to",
          "type": "address"
        },
        {
          "internalType": "uint256",
          "name": "_tokenId",
          "type": "uint256"
        },
        {
          "internalType": "bytes",
          "name": "_data",
          "type": "bytes"
        }
      ],
      "name": "safeTransferFrom",
      "outputs": [],
      "stateMutability": "nonpayable",
      "type": "function"
    },
    {
      "inputs": [
        {
          "internalType": "uint256",
          "name": "_fromTokenId",
          "type": "uint256"
        },
        {
          "internalType": "address",
          "name": "_to",
          "type": "address"
        },
        {
          "internalType": "address",
          "name": "_childContract",
          "type": "address"
        },
        {
          "internalType": "uint256",
          "name": "_childTokenId",
          "type": "uint256"
        }
      ],
      "name": "safeTransferChild",
      "outputs": [],
      "stateMutability": "nonpayable",
      "type": "function"
    },
    {
      "inputs": [
        {
          "internalType": "uint256",
          "name": "_fromTokenId",
          "type": "uint256"
        },
        {
          "internalType": "address",
          "name": "_to",
          "type": "address"
        },
        {
          "internalType": "address",
          "name": "_childContract",
          "type": "address"
        },
        {
          "internalType": "uint256",
          "name": "_childTokenId",
          "type": "uint256"
        },
        {
          "internalType": "bytes",
          "name": "_data",
          "type": "bytes"
        }
      ],
      "name": "safeTransferChild",
      "outputs": [],
      "stateMutability": "nonpayable",
      "type": "function"
    },
    {
      "inputs": [
        {
          "internalType": "uint256",
          "name": "_fromTokenId",
          "type": "uint256"
        },
        {
          "internalType": "address",
          "name": "_to",
          "type": "address"
        },
        {
          "internalType": "address",
          "name": "_childContract",
          "type": "address"
        },
        {
          "internalType": "uint256",
          "name": "_childTokenId",
          "type": "uint256"
        }
      ],
      "name": "transferChild",
      "outputs": [],
      "stateMutability": "nonpayable",
      "type": "function"
    },
    {
      "inputs": [
        {
          "internalType": "uint256",
          "name": "_fromTokenId",
          "type": "uint256"
        },
        {
          "internalType": "address",
          "name": "_toContract",
          "type": "address"
        },
        {
          "internalType": "uint256",
          "name": "_toTokenId",
          "type": "uint256"
        },
        {
          "internalType": "address",
          "name": "_childContract",
          "type": "address"
        },
        {
          "internalType": "uint256",
          "name": "_childTokenId",
          "type": "uint256"
        },
        {
          "internalType": "bytes",
          "name": "_data",
          "type": "bytes"
        }
      ],
      "name": "transferChildToParent",
      "outputs": [],
      "stateMutability": "nonpayable",
      "type": "function"
    },
    {
      "inputs": [
        {
          "internalType": "address",
          "name": "_from",
          "type": "address"
        },
        {
          "internalType": "uint256",
          "name": "_tokenId",
          "type": "uint256"
        },
        {
          "internalType": "address",
          "name": "_childContract",
          "type": "address"
        },
        {
          "internalType": "uint256",
          "name": "_childTokenId",
          "type": "uint256"
        }
      ],
      "name": "getChild",
      "outputs": [],
      "stateMutability": "nonpayable",
      "type": "function"
    },
    {
      "inputs": [
        {
          "internalType": "address",
          "name": "_operator",
          "type": "address"
        },
        {
          "internalType": "address",
          "name": "_from",
          "type": "address"
        },
        {
          "internalType": "uint256",
          "name": "_childTokenId",
          "type": "uint256"
        },
        {
          "internalType": "bytes",
          "name": "_data",
          "type": "bytes"
        }
      ],
      "name": "onERC721Received",
      "outputs": [
        {
          "internalType": "bytes4",
          "name": "",
          "type": "bytes4"
        }
      ],
      "stateMutability": "nonpayable",
      "type": "function"
    },
    {
      "inputs": [
        {
          "internalType": "address",
          "name": "_from",
          "type": "address"
        },
        {
          "internalType": "uint256",
          "name": "_childTokenId",
          "type": "uint256"
        },
        {
          "internalType": "bytes",
          "name": "_data",
          "type": "bytes"
        }
      ],
      "name": "onERC721Received",
      "outputs": [
        {
          "internalType": "bytes4",
          "name": "",
          "type": "bytes4"
        }
      ],
      "stateMutability": "nonpayable",
      "type": "function"
    },
    {
      "inputs": [
        {
          "internalType": "address",
          "name": "_childContract",
          "type": "address"
        },
        {
          "internalType": "uint256",
          "name": "_childTokenId",
          "type": "uint256"
        }
      ],
      "name": "ownerOfChild",
      "outputs": [
        {
          "internalType": "bytes32",
          "name": "parentTokenOwner",
          "type": "bytes32"
        },
        {
          "internalType": "uint256",
          "name": "parentTokenId",
          "type": "uint256"
        }
      ],
      "stateMutability": "view",
      "type": "function",
      "constant": true
    },
    {
      "inputs": [
        {
          "internalType": "address",
          "name": "_childContract",
          "type": "address"
        },
        {
          "internalType": "uint256",
          "name": "_childTokenId",
          "type": "uint256"
        }
      ],
      "name": "childExists",
      "outputs": [
        {
          "internalType": "bool",
          "name": "",
          "type": "bool"
        }
      ],
      "stateMutability": "view",
      "type": "function",
      "constant": true
    },
    {
      "inputs": [
        {
          "internalType": "uint256",
          "name": "_tokenId",
          "type": "uint256"
        }
      ],
      "name": "totalChildContracts",
      "outputs": [
        {
          "internalType": "uint256",
          "name": "",
          "type": "uint256"
        }
      ],
      "stateMutability": "view",
      "type": "function",
      "constant": true
    },
    {
      "inputs": [
        {
          "internalType": "uint256",
          "name": "_tokenId",
          "type": "uint256"
        },
        {
          "internalType": "uint256",
          "name": "_index",
          "type": "uint256"
        }
      ],
      "name": "childContractByIndex",
      "outputs": [
        {
          "internalType": "address",
          "name": "childContract",
          "type": "address"
        }
      ],
      "stateMutability": "view",
      "type": "function",
      "constant": true
    },
    {
      "inputs": [
        {
          "internalType": "uint256",
          "name": "_tokenId",
          "type": "uint256"
        },
        {
          "internalType": "address",
          "name": "_childContract",
          "type": "address"
        }
      ],
      "name": "totalChildTokens",
      "outputs": [
        {
          "internalType": "uint256",
          "name": "",
          "type": "uint256"
        }
      ],
      "stateMutability": "view",
      "type": "function",
      "constant": true
    },
    {
      "inputs": [
        {
          "internalType": "uint256",
          "name": "_tokenId",
          "type": "uint256"
        },
        {
          "internalType": "address",
          "name": "_childContract",
          "type": "address"
        },
        {
          "internalType": "uint256",
          "name": "_index",
          "type": "uint256"
        }
      ],
      "name": "childTokenByIndex",
      "outputs": [
        {
          "internalType": "uint256",
          "name": "childTokenId",
          "type": "uint256"
        }
      ],
      "stateMutability": "view",
      "type": "function",
      "constant": true
    },
    {
      "inputs": [
        {
          "internalType": "uint256",
          "name": "_tokenId",
          "type": "uint256"
        },
        {
          "internalType": "address",
          "name": "_erc20Contract",
          "type": "address"
        }
      ],
      "name": "balanceOfERC20",
      "outputs": [
        {
          "internalType": "uint256",
          "name": "",
          "type": "uint256"
        }
      ],
      "stateMutability": "view",
      "type": "function",
      "constant": true
    },
    {
      "inputs": [
        {
          "internalType": "uint256",
          "name": "_tokenId",
          "type": "uint256"
        },
        {
          "internalType": "address",
          "name": "_to",
          "type": "address"
        },
        {
          "internalType": "address",
          "name": "_erc20Contract",
          "type": "address"
        },
        {
          "internalType": "uint256",
          "name": "_value",
          "type": "uint256"
        }
      ],
      "name": "transferERC20",
      "outputs": [],
      "stateMutability": "nonpayable",
      "type": "function"
    },
    {
      "inputs": [
        {
          "internalType": "uint256",
          "name": "_tokenId",
          "type": "uint256"
        },
        {
          "internalType": "address",
          "name": "_to",
          "type": "address"
        },
        {
          "internalType": "address",
          "name": "_erc223Contract",
          "type": "address"
        },
        {
          "internalType": "uint256",
          "name": "_value",
          "type": "uint256"
        },
        {
          "internalType": "bytes",
          "name": "_data",
          "type": "bytes"
        }
      ],
      "name": "transferERC223",
      "outputs": [],
      "stateMutability": "nonpayable",
      "type": "function"
    },
    {
      "inputs": [
        {
          "internalType": "address",
          "name": "_from",
          "type": "address"
        },
        {
          "internalType": "uint256",
          "name": "_tokenId",
          "type": "uint256"
        },
        {
          "internalType": "address",
          "name": "_erc20Contract",
          "type": "address"
        },
        {
          "internalType": "uint256",
          "name": "_value",
          "type": "uint256"
        }
      ],
      "name": "getERC20",
      "outputs": [],
      "stateMutability": "nonpayable",
      "type": "function"
    },
    {
      "inputs": [
        {
          "internalType": "address",
          "name": "_from",
          "type": "address"
        },
        {
          "internalType": "uint256",
          "name": "_value",
          "type": "uint256"
        },
        {
          "internalType": "bytes",
          "name": "_data",
          "type": "bytes"
        }
      ],
      "name": "tokenFallback",
      "outputs": [],
      "stateMutability": "nonpayable",
      "type": "function"
    },
    {
      "inputs": [
        {
          "internalType": "uint256",
          "name": "_tokenId",
          "type": "uint256"
        },
        {
          "internalType": "uint256",
          "name": "_index",
          "type": "uint256"
        }
      ],
      "name": "erc20ContractByIndex",
      "outputs": [
        {
          "internalType": "address",
          "name": "",
          "type": "address"
        }
      ],
      "stateMutability": "view",
      "type": "function",
      "constant": true
    },
    {
      "inputs": [
        {
          "internalType": "uint256",
          "name": "_tokenId",
          "type": "uint256"
        }
      ],
      "name": "totalERC20Contracts",
      "outputs": [
        {
          "internalType": "uint256",
          "name": "",
          "type": "uint256"
        }
      ],
      "stateMutability": "view",
      "type": "function",
      "constant": true
    }
  ],
  "bytecode": "0x60806040526000805534801561001457600080fd5b50615fc280620000256000396000f3fe608060405234801561001057600080fd5b50600436106101f05760003560e01c806370a082311161010f578063bef44f18116100a2578063e985e9c511610071578063e985e9c51461061d578063eadb80b81461064d578063ed81cdda1461067e578063f0b9e5ba146106ae576101f0565b8063bef44f1814610599578063c0ee0b8a146105b5578063d49d1bac146105d1578063e226ed22146105ed576101f0565b8063a22cb465116100de578063a22cb46514610515578063a781173214610531578063b88d4fde14610561578063ba6b5f961461057d576101f0565b806370a082311461047d578063830ef41b146104ad5780638d81f51e146104c95780638da7d0b5146104e5576101f0565b806323b872dd116101875780635680a3ad116101565780635680a3ad146103bd578063627c81ff146103ed5780636352211e1461041d5780636a6278421461044d576101f0565b806323b872dd1461032557806335b21ceb1461034157806342842e0e1461037157806343a61a8e1461038d576101f0565b80630d5a621b116101c35780630d5a621b14610279578063150b7a02146102a9578063160b01a1146102d95780631d98f3c514610309576101f0565b806307cff6f2146101f5578063081812fc1461021157806308937f6214610241578063095ea7b31461025d575b600080fd5b61020f600480360381019061020a9190614ae0565b6106de565b005b61022b60048036038101906102269190614b47565b61092c565b6040516102389190614b83565b60405180910390f35b61025b60048036038101906102569190614c03565b6109b6565b005b61027760048036038101906102729190614cb2565b610d3a565b005b610293600480360381019061028e9190614cf2565b610f02565b6040516102a09190614b83565b60405180910390f35b6102c360048036038101906102be9190614d32565b610fb4565b6040516102d09190614df5565b60405180910390f35b6102f360048036038101906102ee9190614e10565b61113a565b6040516103009190614e72565b60405180910390f35b610323600480360381019061031e9190614e8d565b611247565b005b61033f600480360381019061033a9190614ef4565b6115c2565b005b61035b60048036038101906103569190614f47565b6115d2565b6040516103689190614e72565b60405180910390f35b61038b60048036038101906103869190614ef4565b611630565b005b6103a760048036038101906103a29190614b47565b611725565b6040516103b49190614fa0565b60405180910390f35b6103d760048036038101906103d29190614cb2565b611739565b6040516103e49190614fd6565b60405180910390f35b61040760048036038101906104029190614cf2565b6117fe565b6040516104149190614b83565b60405180910390f35b61043760048036038101906104329190614b47565b6118b0565b6040516104449190614b83565b60405180910390f35b61046760048036038101906104629190614ff1565b611927565b6040516104749190614e72565b60405180910390f35b61049760048036038101906104929190614ff1565b6119f6565b6040516104a49190614e72565b60405180910390f35b6104c760048036038101906104c29190614e8d565b611a78565b005b6104e360048036038101906104de919061501e565b611d66565b005b6104ff60048036038101906104fa9190614b47565b6120e7565b60405161050c9190614e72565b60405180910390f35b61052f600480360381019061052a91906150e4565b612107565b005b61054b60048036038101906105469190614b47565b61223e565b6040516105589190614e72565b60405180910390f35b61057b60048036038101906105769190614d32565b61225e565b005b61059760048036038101906105929190614ae0565b612359565b005b6105b360048036038101906105ae9190614e8d565b612544565b005b6105cf60048036038101906105ca9190615124565b61292c565b005b6105eb60048036038101906105e6919061501e565b612a03565b005b61060760048036038101906106029190614f47565b612cf7565b6040516106149190614e72565b60405180910390f35b61063760048036038101906106329190615198565b612d52565b6040516106449190614fd6565b60405180910390f35b61066760048036038101906106629190614cb2565b612e59565b6040516106759291906151d8565b60405180910390f35b61069860048036038101906106939190614cb2565b612fa3565b6040516106a59190614fa0565b60405180910390f35b6106c860048036038101906106c39190615124565b613181565b6040516106d59190614df5565b60405180910390f35b60003373ffffffffffffffffffffffffffffffffffffffff168573ffffffffffffffffffffffffffffffffffffffff161490508061081a5760008063dd62ed3e8733604051602401610731929190615201565b6040516020818303038152906040529060e01b6020820180517bffffffffffffffffffffffffffffffffffffffffffffffffffffffff838183161783525050505090506000602082835160208501895afa9050801561078f57815192505b806107cf576040517f08c379a00000000000000000000000000000000000000000000000000000000081526004016107c690615287565b60405180910390fd5b84831015610812576040517f08c379a0000000000000000000000000000000000000000000000000000000008152600401610809906152f3565b60405180910390fd5b600193505050505b8061085a576040517f08c379a00000000000000000000000000000000000000000000000000000000081526004016108519061535f565b60405180910390fd5b61086685858585613306565b8273ffffffffffffffffffffffffffffffffffffffff166323b872dd8630856040518463ffffffff1660e01b81526004016108a39392919061537f565b6020604051808303816000875af11580156108c2573d6000803e3d6000fd5b505050506040513d601f19601f820116820180604052508101906108e691906153cb565b610925576040517f08c379a000000000000000000000000000000000000000000000000000000000815260040161091c90615444565b60405180910390fd5b5050505050565b60008061093883611725565b60601c9050600260008273ffffffffffffffffffffffffffffffffffffffff1673ffffffffffffffffffffffffffffffffffffffff168152602001908152602001600020600084815260200190815260200160002060009054906101000a900473ffffffffffffffffffffffffffffffffffffffff16915050919050565b6000600960008673ffffffffffffffffffffffffffffffffffffffff1673ffffffffffffffffffffffffffffffffffffffff16815260200190815260200160002060008581526020019081526020016000205490506000811180610a7b575060006008600083815260200190815260200160002060008773ffffffffffffffffffffffffffffffffffffffff1673ffffffffffffffffffffffffffffffffffffffff168152602001908152602001600020600086815260200190815260200160002054115b610a8457600080fd5b878114610a9057600080fd5b600073ffffffffffffffffffffffffffffffffffffffff168773ffffffffffffffffffffffffffffffffffffffff161415610aca57600080fd5b6000610ad582611725565b60601c90503373ffffffffffffffffffffffffffffffffffffffff168173ffffffffffffffffffffffffffffffffffffffff161480610b9a5750600460008273ffffffffffffffffffffffffffffffffffffffff1673ffffffffffffffffffffffffffffffffffffffff16815260200190815260200160002060003373ffffffffffffffffffffffffffffffffffffffff1673ffffffffffffffffffffffffffffffffffffffff16815260200190815260200160002060009054906101000a900460ff165b80610c4057503373ffffffffffffffffffffffffffffffffffffffff16600260008373ffffffffffffffffffffffffffffffffffffffff1673ffffffffffffffffffffffffffffffffffffffff168152602001908152602001600020600084815260200190815260200160002060009054906101000a900473ffffffffffffffffffffffffffffffffffffffff1673ffffffffffffffffffffffffffffffffffffffff16145b610c4957600080fd5b610c548987876135ca565b8573ffffffffffffffffffffffffffffffffffffffff1663f50acfa0308a8a8989896040518763ffffffff1660e01b8152600401610c97969594939291906154c2565b600060405180830381600087803b158015610cb157600080fd5b505af1158015610cc5573d6000803e3d6000fd5b505050508573ffffffffffffffffffffffffffffffffffffffff168873ffffffffffffffffffffffffffffffffffffffff168a7f0ef52e516fb5aec15a5d3587e5480481b702b26db93c8430eca78b61990fd3f688604051610d279190614e72565b60405180910390a4505050505050505050565b6000610d4582611725565b60601c90503373ffffffffffffffffffffffffffffffffffffffff168173ffffffffffffffffffffffffffffffffffffffff161480610e0a5750600460008273ffffffffffffffffffffffffffffffffffffffff1673ffffffffffffffffffffffffffffffffffffffff16815260200190815260200160002060003373ffffffffffffffffffffffffffffffffffffffff1673ffffffffffffffffffffffffffffffffffffffff16815260200190815260200160002060009054906101000a900460ff165b610e1357600080fd5b82600260008373ffffffffffffffffffffffffffffffffffffffff1673ffffffffffffffffffffffffffffffffffffffff168152602001908152602001600020600084815260200190815260200160002060006101000a81548173ffffffffffffffffffffffffffffffffffffffff021916908373ffffffffffffffffffffffffffffffffffffffff160217905550818373ffffffffffffffffffffffffffffffffffffffff168273ffffffffffffffffffffffffffffffffffffffff167f8c5be1e5ebec7d5bd14f71427d1e84f3dd0314c0f7b2291e5b200ac8c7c3b92560405160405180910390a4505050565b600060056000848152602001908152602001600020805490508210610f5c576040517f08c379a0000000000000000000000000000000000000000000000000000000008152600401610f5390615590565b60405180910390fd5b600560008481526020019081526020016000208281548110610f8157610f806155b0565b5b9060005260206000200160009054906101000a900473ffffffffffffffffffffffffffffffffffffffff16905092915050565b6000808383905011610ffb576040517f08c379a0000000000000000000000000000000000000000000000000000000008152600401610ff290615677565b60405180910390fd5b600060a435905060208484905010156110315760088484905061101e91906156c6565b61010061102b9190615720565b81901c90505b61103d86823388613b1e565b600073ffffffffffffffffffffffffffffffffffffffff163373ffffffffffffffffffffffffffffffffffffffff16636352211e876040518263ffffffff1660e01b815260040161108e9190614e72565b602060405180830381865afa1580156110ab573d6000803e3d6000fd5b505050506040513d601f19601f820116820180604052508101906110cf9190615769565b73ffffffffffffffffffffffffffffffffffffffff161415611126576040517f08c379a000000000000000000000000000000000000000000000000000000000815260040161111d906157e2565b60405180910390fd5b63150b7a0260e01b91505095945050505050565b60006007600085815260200190815260200160002060008473ffffffffffffffffffffffffffffffffffffffff1673ffffffffffffffffffffffffffffffffffffffff1681526020019081526020016000208054905082106111d1576040517f08c379a00000000000000000000000000000000000000000000000000000000081526004016111c890615874565b60405180910390fd5b6007600085815260200190815260200160002060008473ffffffffffffffffffffffffffffffffffffffff1673ffffffffffffffffffffffffffffffffffffffff1681526020019081526020016000208281548110611233576112326155b0565b5b906000526020600020015490509392505050565b6000600960008473ffffffffffffffffffffffffffffffffffffffff1673ffffffffffffffffffffffffffffffffffffffff1681526020019081526020016000206000838152602001908152602001600020549050600081118061130c575060006008600083815260200190815260200160002060008573ffffffffffffffffffffffffffffffffffffffff1673ffffffffffffffffffffffffffffffffffffffff168152602001908152602001600020600084815260200190815260200160002054115b61131557600080fd5b84811461132157600080fd5b600073ffffffffffffffffffffffffffffffffffffffff168473ffffffffffffffffffffffffffffffffffffffff16141561135b57600080fd5b600061136682611725565b60601c90503373ffffffffffffffffffffffffffffffffffffffff168173ffffffffffffffffffffffffffffffffffffffff16148061142b5750600460008273ffffffffffffffffffffffffffffffffffffffff1673ffffffffffffffffffffffffffffffffffffffff16815260200190815260200160002060003373ffffffffffffffffffffffffffffffffffffffff1673ffffffffffffffffffffffffffffffffffffffff16815260200190815260200160002060009054906101000a900460ff165b806114d157503373ffffffffffffffffffffffffffffffffffffffff16600260008373ffffffffffffffffffffffffffffffffffffffff1673ffffffffffffffffffffffffffffffffffffffff168152602001908152602001600020600084815260200190815260200160002060009054906101000a900473ffffffffffffffffffffffffffffffffffffffff1673ffffffffffffffffffffffffffffffffffffffff16145b6114da57600080fd5b6114e58285856135ca565b8373ffffffffffffffffffffffffffffffffffffffff166342842e0e3087866040518463ffffffff1660e01b81526004016115229392919061537f565b600060405180830381600087803b15801561153c57600080fd5b505af1158015611550573d6000803e3d6000fd5b505050508373ffffffffffffffffffffffffffffffffffffffff168573ffffffffffffffffffffffffffffffffffffffff16837f0ef52e516fb5aec15a5d3587e5480481b702b26db93c8430eca78b61990fd3f6866040516115b29190614e72565b60405180910390a4505050505050565b6115cd838383613f51565b505050565b60006007600084815260200190815260200160002060008373ffffffffffffffffffffffffffffffffffffffff1673ffffffffffffffffffffffffffffffffffffffff16815260200190815260200160002080549050905092915050565b61163b838383613f51565b611644826145e8565b156117205760008273ffffffffffffffffffffffffffffffffffffffff1663150b7a023386856040518463ffffffff1660e01b8152600401611688939291906158ba565b6020604051808303816000875af11580156116a7573d6000803e3d6000fd5b505050506040513d601f19601f820116820180604052508101906116cb9190615930565b905063f0b9e5ba60e01b7bffffffffffffffffffffffffffffffffffffffffffffffffffffffff1916817bffffffffffffffffffffffffffffffffffffffffffffffffffffffff19161461171e57600080fd5b505b505050565b6000611732600083612fa3565b9050919050565b600080600960008573ffffffffffffffffffffffffffffffffffffffff1673ffffffffffffffffffffffffffffffffffffffff168152602001908152602001600020600084815260200190815260200160002054905060006008600083815260200190815260200160002060008673ffffffffffffffffffffffffffffffffffffffff1673ffffffffffffffffffffffffffffffffffffffff168152602001908152602001600020600085815260200190815260200160002054141591505092915050565b6000600a6000848152602001908152602001600020805490508210611858576040517f08c379a000000000000000000000000000000000000000000000000000000000815260040161184f90615590565b60405180910390fd5b600a6000848152602001908152602001600020828154811061187d5761187c6155b0565b5b9060005260206000200160009054906101000a900473ffffffffffffffffffffffffffffffffffffffff16905092915050565b60006001600083815260200190815260200160002060009054906101000a900473ffffffffffffffffffffffffffffffffffffffff169050600073ffffffffffffffffffffffffffffffffffffffff168173ffffffffffffffffffffffffffffffffffffffff16141561192257600080fd5b919050565b600080600081548092919061193b9061595d565b9190505550600080549050826001600083815260200190815260200160002060006101000a81548173ffffffffffffffffffffffffffffffffffffffff021916908373ffffffffffffffffffffffffffffffffffffffff160217905550600360008473ffffffffffffffffffffffffffffffffffffffff1673ffffffffffffffffffffffffffffffffffffffff16815260200190815260200160002060008154809291906119e89061595d565b919050555080915050919050565b60008073ffffffffffffffffffffffffffffffffffffffff168273ffffffffffffffffffffffffffffffffffffffff161415611a3157600080fd5b600360008373ffffffffffffffffffffffffffffffffffffffff1673ffffffffffffffffffffffffffffffffffffffff168152602001908152602001600020549050919050565b600073ffffffffffffffffffffffffffffffffffffffff168373ffffffffffffffffffffffffffffffffffffffff161415611ab257600080fd5b6000611abd85611725565b60601c90503373ffffffffffffffffffffffffffffffffffffffff168173ffffffffffffffffffffffffffffffffffffffff161480611b825750600460008273ffffffffffffffffffffffffffffffffffffffff1673ffffffffffffffffffffffffffffffffffffffff16815260200190815260200160002060003373ffffffffffffffffffffffffffffffffffffffff1673ffffffffffffffffffffffffffffffffffffffff16815260200190815260200160002060009054906101000a900460ff165b80611c2857503373ffffffffffffffffffffffffffffffffffffffff16600260008373ffffffffffffffffffffffffffffffffffffffff1673ffffffffffffffffffffffffffffffffffffffff168152602001908152602001600020600087815260200190815260200160002060009054906101000a900473ffffffffffffffffffffffffffffffffffffffff1673ffffffffffffffffffffffffffffffffffffffff16145b611c3157600080fd5b611c3c8584846145fb565b8273ffffffffffffffffffffffffffffffffffffffff1663a9059cbb85846040518363ffffffff1660e01b8152600401611c779291906159a6565b6020604051808303816000875af1158015611c96573d6000803e3d6000fd5b505050506040513d601f19601f82011682018060405250810190611cba91906153cb565b611cf9576040517f08c379a0000000000000000000000000000000000000000000000000000000008152600401611cf090615444565b60405180910390fd5b8273ffffffffffffffffffffffffffffffffffffffff168473ffffffffffffffffffffffffffffffffffffffff16867fa8352277873fc0d2b233b8127433da351a4164fa701ed6ff79655694222932c485604051611d579190614e72565b60405180910390a45050505050565b6000600960008673ffffffffffffffffffffffffffffffffffffffff1673ffffffffffffffffffffffffffffffffffffffff16815260200190815260200160002060008581526020019081526020016000205490506000811180611e2b575060006008600083815260200190815260200160002060008773ffffffffffffffffffffffffffffffffffffffff1673ffffffffffffffffffffffffffffffffffffffff168152602001908152602001600020600086815260200190815260200160002054115b611e3457600080fd5b868114611e4057600080fd5b600073ffffffffffffffffffffffffffffffffffffffff168673ffffffffffffffffffffffffffffffffffffffff161415611e7a57600080fd5b6000611e8582611725565b60601c90503373ffffffffffffffffffffffffffffffffffffffff168173ffffffffffffffffffffffffffffffffffffffff161480611f4a5750600460008273ffffffffffffffffffffffffffffffffffffffff1673ffffffffffffffffffffffffffffffffffffffff16815260200190815260200160002060003373ffffffffffffffffffffffffffffffffffffffff1673ffffffffffffffffffffffffffffffffffffffff16815260200190815260200160002060009054906101000a900460ff165b80611ff057503373ffffffffffffffffffffffffffffffffffffffff16600260008373ffffffffffffffffffffffffffffffffffffffff1673ffffffffffffffffffffffffffffffffffffffff168152602001908152602001600020600084815260200190815260200160002060009054906101000a900473ffffffffffffffffffffffffffffffffffffffff1673ffffffffffffffffffffffffffffffffffffffff16145b611ff957600080fd5b6120048287876135ca565b8573ffffffffffffffffffffffffffffffffffffffff1663b88d4fde30898888886040518663ffffffff1660e01b81526004016120459594939291906159cf565b600060405180830381600087803b15801561205f57600080fd5b505af1158015612073573d6000803e3d6000fd5b505050508573ffffffffffffffffffffffffffffffffffffffff168773ffffffffffffffffffffffffffffffffffffffff16837f0ef52e516fb5aec15a5d3587e5480481b702b26db93c8430eca78b61990fd3f6886040516120d59190614e72565b60405180910390a45050505050505050565b600060056000838152602001908152602001600020805490509050919050565b600073ffffffffffffffffffffffffffffffffffffffff168273ffffffffffffffffffffffffffffffffffffffff16141561214157600080fd5b80600460003373ffffffffffffffffffffffffffffffffffffffff1673ffffffffffffffffffffffffffffffffffffffff16815260200190815260200160002060008473ffffffffffffffffffffffffffffffffffffffff1673ffffffffffffffffffffffffffffffffffffffff16815260200190815260200160002060006101000a81548160ff0219169083151502179055508173ffffffffffffffffffffffffffffffffffffffff163373ffffffffffffffffffffffffffffffffffffffff167f17307eab39ab6107e8899845ad3d59bd9653f200f220920489ca2b5937696c31836040516122329190614fd6565b60405180910390a35050565b6000600a6000838152602001908152602001600020805490509050919050565b612269858585613f51565b612272846145e8565b156123525760008473ffffffffffffffffffffffffffffffffffffffff1663150b7a0233888787876040518663ffffffff1660e01b81526004016122ba9594939291906159cf565b6020604051808303816000875af11580156122d9573d6000803e3d6000fd5b505050506040513d601f19601f820116820180604052508101906122fd9190615930565b905063f0b9e5ba60e01b7bffffffffffffffffffffffffffffffffffffffffffffffffffffffff1916817bffffffffffffffffffffffffffffffffffffffffffffffffffffffff19161461235057600080fd5b505b5050505050565b61236584848484613b1e565b3373ffffffffffffffffffffffffffffffffffffffff168473ffffffffffffffffffffffffffffffffffffffff16148061241757508173ffffffffffffffffffffffffffffffffffffffff1663e985e9c585336040518363ffffffff1660e01b81526004016123d5929190615201565b602060405180830381865afa1580156123f2573d6000803e3d6000fd5b505050506040513d601f19601f8201168201806040525081019061241691906153cb565b5b806124c657503373ffffffffffffffffffffffffffffffffffffffff168273ffffffffffffffffffffffffffffffffffffffff1663081812fc836040518263ffffffff1660e01b815260040161246d9190614e72565b602060405180830381865afa15801561248a573d6000803e3d6000fd5b505050506040513d601f19601f820116820180604052508101906124ae9190615769565b73ffffffffffffffffffffffffffffffffffffffff16145b6124cf57600080fd5b8173ffffffffffffffffffffffffffffffffffffffff166323b872dd8530846040518463ffffffff1660e01b815260040161250c9392919061537f565b600060405180830381600087803b15801561252657600080fd5b505af115801561253a573d6000803e3d6000fd5b5050505050505050565b6000600960008473ffffffffffffffffffffffffffffffffffffffff1673ffffffffffffffffffffffffffffffffffffffff16815260200190815260200160002060008381526020019081526020016000205490506000811180612609575060006008600083815260200190815260200160002060008573ffffffffffffffffffffffffffffffffffffffff1673ffffffffffffffffffffffffffffffffffffffff168152602001908152602001600020600084815260200190815260200160002054115b61261257600080fd5b84811461261e57600080fd5b600073ffffffffffffffffffffffffffffffffffffffff168473ffffffffffffffffffffffffffffffffffffffff16141561265857600080fd5b600061266382611725565b60601c90503373ffffffffffffffffffffffffffffffffffffffff168173ffffffffffffffffffffffffffffffffffffffff1614806127285750600460008273ffffffffffffffffffffffffffffffffffffffff1673ffffffffffffffffffffffffffffffffffffffff16815260200190815260200160002060003373ffffffffffffffffffffffffffffffffffffffff1673ffffffffffffffffffffffffffffffffffffffff16815260200190815260200160002060009054906101000a900460ff165b806127ce57503373ffffffffffffffffffffffffffffffffffffffff16600260008373ffffffffffffffffffffffffffffffffffffffff1673ffffffffffffffffffffffffffffffffffffffff168152602001908152602001600020600084815260200190815260200160002060009054906101000a900473ffffffffffffffffffffffffffffffffffffffff1673ffffffffffffffffffffffffffffffffffffffff16145b6127d757600080fd5b6127e28285856135ca565b600063095ea7b330856040516024016127fc929190615a7c565b6040516020818303038152906040529060e01b6020820180517bffffffffffffffffffffffffffffffffffffffffffffffffffffffff838183161783525050505090506000818251602084016000895af1508473ffffffffffffffffffffffffffffffffffffffff166323b872dd3088876040518463ffffffff1660e01b815260040161288b9392919061537f565b600060405180830381600087803b1580156128a557600080fd5b505af11580156128b9573d6000803e3d6000fd5b505050508473ffffffffffffffffffffffffffffffffffffffff168673ffffffffffffffffffffffffffffffffffffffff16847f0ef52e516fb5aec15a5d3587e5480481b702b26db93c8430eca78b61990fd3f68760405161291b9190614e72565b60405180910390a450505050505050565b60008282905011612972576040517f08c379a000000000000000000000000000000000000000000000000000000000815260040161296990615b17565b60405180910390fd5b61297b336145e8565b6129ba576040517f08c379a00000000000000000000000000000000000000000000000000000000081526004016129b190615b83565b60405180910390fd5b6000608435905060208383905010156129f0576008838390506129dd91906156c6565b6101006129ea9190615720565b81901c90505b6129fc85823387613306565b5050505050565b600073ffffffffffffffffffffffffffffffffffffffff168573ffffffffffffffffffffffffffffffffffffffff161415612a3d57600080fd5b6000612a4887611725565b60601c90503373ffffffffffffffffffffffffffffffffffffffff168173ffffffffffffffffffffffffffffffffffffffff161480612b0d5750600460008273ffffffffffffffffffffffffffffffffffffffff1673ffffffffffffffffffffffffffffffffffffffff16815260200190815260200160002060003373ffffffffffffffffffffffffffffffffffffffff1673ffffffffffffffffffffffffffffffffffffffff16815260200190815260200160002060009054906101000a900460ff165b80612bb357503373ffffffffffffffffffffffffffffffffffffffff16600260008373ffffffffffffffffffffffffffffffffffffffff1673ffffffffffffffffffffffffffffffffffffffff168152602001908152602001600020600089815260200190815260200160002060009054906101000a900473ffffffffffffffffffffffffffffffffffffffff1673ffffffffffffffffffffffffffffffffffffffff16145b612bbc57600080fd5b612bc78786866145fb565b8473ffffffffffffffffffffffffffffffffffffffff1663be45fd62878686866040518563ffffffff1660e01b8152600401612c069493929190615ba3565b6020604051808303816000875af1158015612c25573d6000803e3d6000fd5b505050506040513d601f19601f82011682018060405250810190612c4991906153cb565b612c88576040517f08c379a0000000000000000000000000000000000000000000000000000000008152600401612c7f90615c2f565b60405180910390fd5b8473ffffffffffffffffffffffffffffffffffffffff168673ffffffffffffffffffffffffffffffffffffffff16887fa8352277873fc0d2b233b8127433da351a4164fa701ed6ff79655694222932c487604051612ce69190614e72565b60405180910390a450505050505050565b6000600c600084815260200190815260200160002060008373ffffffffffffffffffffffffffffffffffffffff1673ffffffffffffffffffffffffffffffffffffffff16815260200190815260200160002054905092915050565b60008073ffffffffffffffffffffffffffffffffffffffff168373ffffffffffffffffffffffffffffffffffffffff161415612d8d57600080fd5b600073ffffffffffffffffffffffffffffffffffffffff168273ffffffffffffffffffffffffffffffffffffffff161415612dc757600080fd5b600460008473ffffffffffffffffffffffffffffffffffffffff1673ffffffffffffffffffffffffffffffffffffffff16815260200190815260200160002060008373ffffffffffffffffffffffffffffffffffffffff1673ffffffffffffffffffffffffffffffffffffffff16815260200190815260200160002060009054906101000a900460ff16905092915050565b600080600960008573ffffffffffffffffffffffffffffffffffffffff1673ffffffffffffffffffffffffffffffffffffffff16815260200190815260200160002060008481526020019081526020016000205490506000811180612f1f575060006008600083815260200190815260200160002060008673ffffffffffffffffffffffffffffffffffffffff1673ffffffffffffffffffffffffffffffffffffffff168152602001908152602001600020600085815260200190815260200160002054115b612f2857600080fd5b6001600082815260200190815260200160002060009054906101000a900473ffffffffffffffffffffffffffffffffffffffff1660601b6bffffffffffffffffffffffff191660e063cd740db560e01b7bffffffffffffffffffffffffffffffffffffffffffffffffffffffff1916901b1791509250929050565b600080600073ffffffffffffffffffffffffffffffffffffffff168473ffffffffffffffffffffffffffffffffffffffff1614612ff157612fe48484614936565b8094508192505050613028565b6001600084815260200190815260200160002060009054906101000a900473ffffffffffffffffffffffffffffffffffffffff1690505b5b3073ffffffffffffffffffffffffffffffffffffffff168173ffffffffffffffffffffffffffffffffffffffff161415613074576130678184614936565b8094508192505050613029565b6000606063ed81cdda30866040516024016130909291906159a6565b6040516020818303038152906040529060e01b6020820180517bffffffffffffffffffffffffffffffffffffffffffffffffffffffff83818316178352505050509050602081825160208401865afa915081156130ec57805193505b60011515821515148015613129575063cd740db560e01b7bffffffffffffffffffffffffffffffffffffffffffffffffffffffff191660e085901c145b156131365750505061317b565b8260601b6bffffffffffffffffffffffff191660e063cd740db560e01b7bffffffffffffffffffffffffffffffffffffffffffffffffffffffff1916901b1793505050505b92915050565b60008083839050116131c8576040517f08c379a00000000000000000000000000000000000000000000000000000000081526004016131bf90615677565b60405180910390fd5b6000608435905060208484905010156131fe576008848490506131eb91906156c6565b6101006131f89190615720565b81901c90505b61320a86823388613b1e565b600073ffffffffffffffffffffffffffffffffffffffff163373ffffffffffffffffffffffffffffffffffffffff16636352211e876040518263ffffffff1660e01b815260040161325b9190614e72565b602060405180830381865afa158015613278573d6000803e3d6000fd5b505050506040513d601f19601f8201168201806040525081019061329c9190615769565b73ffffffffffffffffffffffffffffffffffffffff1614156132f3576040517f08c379a00000000000000000000000000000000000000000000000000000000081526004016132ea906157e2565b60405180910390fd5b63f0b9e5ba60e01b915050949350505050565b600073ffffffffffffffffffffffffffffffffffffffff166001600085815260200190815260200160002060009054906101000a900473ffffffffffffffffffffffffffffffffffffffff1673ffffffffffffffffffffffffffffffffffffffff1614156133a9576040517f08c379a00000000000000000000000000000000000000000000000000000000081526004016133a090615c9b565b60405180910390fd5b60008114156133b7576135c4565b6000600c600085815260200190815260200160002060008473ffffffffffffffffffffffffffffffffffffffff1673ffffffffffffffffffffffffffffffffffffffff16815260200190815260200160002054905060008114156134f557600a600085815260200190815260200160002080549050600b600086815260200190815260200160002060008573ffffffffffffffffffffffffffffffffffffffff1673ffffffffffffffffffffffffffffffffffffffff16815260200190815260200160002081905550600a6000858152602001908152602001600020839080600181540180825580915050600190039060005260206000200160009091909190916101000a81548173ffffffffffffffffffffffffffffffffffffffff021916908373ffffffffffffffffffffffffffffffffffffffff1602179055505b81600c600086815260200190815260200160002060008573ffffffffffffffffffffffffffffffffffffffff1673ffffffffffffffffffffffffffffffffffffffff16815260200190815260200160002060008282546135559190615cbb565b925050819055508273ffffffffffffffffffffffffffffffffffffffff16848673ffffffffffffffffffffffffffffffffffffffff167f684ce28ace37552c6bfb98b7cceda8ed55327078eafb5dfb31218e0856382763856040516135ba9190614e72565b60405180910390a4505b50505050565b60006008600085815260200190815260200160002060008473ffffffffffffffffffffffffffffffffffffffff1673ffffffffffffffffffffffffffffffffffffffff16815260200190815260200160002060008381526020019081526020016000205490506000811415613674576040517f08c379a000000000000000000000000000000000000000000000000000000000815260040161366b90615d5d565b60405180910390fd5b600060016007600087815260200190815260200160002060008673ffffffffffffffffffffffffffffffffffffffff1673ffffffffffffffffffffffffffffffffffffffff168152602001908152602001600020805490506136d69190615720565b905060006007600087815260200190815260200160002060008673ffffffffffffffffffffffffffffffffffffffff1673ffffffffffffffffffffffffffffffffffffffff168152602001908152602001600020828154811061373c5761373b6155b0565b5b906000526020600020015490508084141561383557806007600088815260200190815260200160002060008773ffffffffffffffffffffffffffffffffffffffff1673ffffffffffffffffffffffffffffffffffffffff1681526020019081526020016000206001856137af9190615720565b815481106137c0576137bf6155b0565b5b9060005260206000200181905550826008600088815260200190815260200160002060008773ffffffffffffffffffffffffffffffffffffffff1673ffffffffffffffffffffffffffffffffffffffff1681526020019081526020016000206000838152602001908152602001600020819055505b6008600087815260200190815260200160002060008673ffffffffffffffffffffffffffffffffffffffff1673ffffffffffffffffffffffffffffffffffffffff168152602001908152602001600020600085815260200190815260200160002060009055600960008673ffffffffffffffffffffffffffffffffffffffff1673ffffffffffffffffffffffffffffffffffffffff1681526020019081526020016000206000858152602001908152602001600020600090556000821415613b165760006001600560008981526020019081526020016000208054905061391c9190615720565b90506000600560008981526020019081526020016000208281548110613945576139446155b0565b5b9060005260206000200160009054906101000a900473ffffffffffffffffffffffffffffffffffffffff1690508073ffffffffffffffffffffffffffffffffffffffff168773ffffffffffffffffffffffffffffffffffffffff1614613abf576000600660008a815260200190815260200160002060008973ffffffffffffffffffffffffffffffffffffffff1673ffffffffffffffffffffffffffffffffffffffff16815260200190815260200160002054905081600560008b81526020019081526020016000208281548110613a2057613a1f6155b0565b5b9060005260206000200160006101000a81548173ffffffffffffffffffffffffffffffffffffffff021916908373ffffffffffffffffffffffffffffffffffffffff16021790555080600660008b815260200190815260200160002060008473ffffffffffffffffffffffffffffffffffffffff1673ffffffffffffffffffffffffffffffffffffffff16815260200190815260200160002081905550505b6006600089815260200190815260200160002060008873ffffffffffffffffffffffffffffffffffffffff1673ffffffffffffffffffffffffffffffffffffffff1681526020019081526020016000206000905550505b505050505050565b600073ffffffffffffffffffffffffffffffffffffffff166001600085815260200190815260200160002060009054906101000a900473ffffffffffffffffffffffffffffffffffffffff1673ffffffffffffffffffffffffffffffffffffffff161415613bc1576040517f08c379a0000000000000000000000000000000000000000000000000000000008152600401613bb890615c9b565b60405180910390fd5b60006008600085815260200190815260200160002060008473ffffffffffffffffffffffffffffffffffffffff1673ffffffffffffffffffffffffffffffffffffffff16815260200190815260200160002060008381526020019081526020016000205414613c65576040517f08c379a0000000000000000000000000000000000000000000000000000000008152600401613c5c90615def565b60405180910390fd5b60006007600085815260200190815260200160002060008473ffffffffffffffffffffffffffffffffffffffff1673ffffffffffffffffffffffffffffffffffffffff1681526020019081526020016000208054905090506000811415613da65760056000858152602001908152602001600020805490506006600086815260200190815260200160002060008573ffffffffffffffffffffffffffffffffffffffff1673ffffffffffffffffffffffffffffffffffffffff1681526020019081526020016000208190555060056000858152602001908152602001600020839080600181540180825580915050600190039060005260206000200160009091909190916101000a81548173ffffffffffffffffffffffffffffffffffffffff021916908373ffffffffffffffffffffffffffffffffffffffff1602179055505b6007600085815260200190815260200160002060008473ffffffffffffffffffffffffffffffffffffffff1673ffffffffffffffffffffffffffffffffffffffff168152602001908152602001600020829080600181540180825580915050600190039060005260206000200160009091909190915055600181613e2a9190615cbb565b6008600086815260200190815260200160002060008573ffffffffffffffffffffffffffffffffffffffff1673ffffffffffffffffffffffffffffffffffffffff16815260200190815260200160002060008481526020019081526020016000208190555083600960008573ffffffffffffffffffffffffffffffffffffffff1673ffffffffffffffffffffffffffffffffffffffff1681526020019081526020016000206000848152602001908152602001600020819055508273ffffffffffffffffffffffffffffffffffffffff16848673ffffffffffffffffffffffffffffffffffffffff167f0371ddf2288ad1ba92626a7e31c86a9d006e592cfe57d7d946ef08b13457c08b85604051613f429190614e72565b60405180910390a45050505050565b600073ffffffffffffffffffffffffffffffffffffffff168373ffffffffffffffffffffffffffffffffffffffff161415613f8b57600080fd5b8273ffffffffffffffffffffffffffffffffffffffff166001600083815260200190815260200160002060009054906101000a900473ffffffffffffffffffffffffffffffffffffffff1673ffffffffffffffffffffffffffffffffffffffff1614613ff657600080fd5b600073ffffffffffffffffffffffffffffffffffffffff168273ffffffffffffffffffffffffffffffffffffffff16141561403057600080fd5b8273ffffffffffffffffffffffffffffffffffffffff163373ffffffffffffffffffffffffffffffffffffffff161461429457600080600063ed81cdda30856040516024016140809291906159a6565b6040516020818303038152906040529060e01b6020820180517bffffffffffffffffffffffffffffffffffffffffffffffffffffffff83818316178352505050509050602081825160208401895afa915081156140dc57805192505b6001151582151514156141575763cd740db560e01b7bffffffffffffffffffffffffffffffffffffffffffffffffffffffff191660e084901c1415614156576040517f08c379a000000000000000000000000000000000000000000000000000000000815260040161414d90615e81565b60405180910390fd5b5b600460008773ffffffffffffffffffffffffffffffffffffffff1673ffffffffffffffffffffffffffffffffffffffff16815260200190815260200160002060003373ffffffffffffffffffffffffffffffffffffffff1673ffffffffffffffffffffffffffffffffffffffff16815260200190815260200160002060009054906101000a900460ff168061428757503373ffffffffffffffffffffffffffffffffffffffff16600260008873ffffffffffffffffffffffffffffffffffffffff1673ffffffffffffffffffffffffffffffffffffffff168152602001908152602001600020600086815260200190815260200160002060009054906101000a900473ffffffffffffffffffffffffffffffffffffffff1673ffffffffffffffffffffffffffffffffffffffff16145b61429057600080fd5b5050505b600073ffffffffffffffffffffffffffffffffffffffff16600260008573ffffffffffffffffffffffffffffffffffffffff1673ffffffffffffffffffffffffffffffffffffffff168152602001908152602001600020600083815260200190815260200160002060009054906101000a900473ffffffffffffffffffffffffffffffffffffffff1673ffffffffffffffffffffffffffffffffffffffff161461440857600260008473ffffffffffffffffffffffffffffffffffffffff1673ffffffffffffffffffffffffffffffffffffffff168152602001908152602001600020600082815260200190815260200160002060006101000a81549073ffffffffffffffffffffffffffffffffffffffff021916905580600073ffffffffffffffffffffffffffffffffffffffff168473ffffffffffffffffffffffffffffffffffffffff167f8c5be1e5ebec7d5bd14f71427d1e84f3dd0314c0f7b2291e5b200ac8c7c3b92560405160405180910390a45b8173ffffffffffffffffffffffffffffffffffffffff168373ffffffffffffffffffffffffffffffffffffffff1614614588576000600360008573ffffffffffffffffffffffffffffffffffffffff1673ffffffffffffffffffffffffffffffffffffffff168152602001908152602001600020541161448b5761448a615ea1565b5b600360008473ffffffffffffffffffffffffffffffffffffffff1673ffffffffffffffffffffffffffffffffffffffff16815260200190815260200160002060008154809291906144db90615ed0565b9190505550816001600083815260200190815260200160002060006101000a81548173ffffffffffffffffffffffffffffffffffffffff021916908373ffffffffffffffffffffffffffffffffffffffff160217905550600360008373ffffffffffffffffffffffffffffffffffffffff1673ffffffffffffffffffffffffffffffffffffffff16815260200190815260200160002060008154809291906145829061595d565b91905055505b808273ffffffffffffffffffffffffffffffffffffffff168473ffffffffffffffffffffffffffffffffffffffff167fddf252ad1be2c89b69c2b068fc378daa952ba7f163c4a11628f55a4df523b3ef60405160405180910390a4505050565b600080823b905060008111915050919050565b600081141561460957614931565b6000600c600085815260200190815260200160002060008473ffffffffffffffffffffffffffffffffffffffff1673ffffffffffffffffffffffffffffffffffffffff168152602001908152602001600020549050818110156146a1576040517f08c379a000000000000000000000000000000000000000000000000000000000815260040161469890615f6c565b60405180910390fd5b600082826146af9190615720565b905080600c600087815260200190815260200160002060008673ffffffffffffffffffffffffffffffffffffffff1673ffffffffffffffffffffffffffffffffffffffff16815260200190815260200160002081905550600081141561492e5760006001600a6000888152602001908152602001600020805490506147349190615720565b90506000600a6000888152602001908152602001600020828154811061475d5761475c6155b0565b5b9060005260206000200160009054906101000a900473ffffffffffffffffffffffffffffffffffffffff1690508073ffffffffffffffffffffffffffffffffffffffff168673ffffffffffffffffffffffffffffffffffffffff16146148d7576000600b600089815260200190815260200160002060008873ffffffffffffffffffffffffffffffffffffffff1673ffffffffffffffffffffffffffffffffffffffff16815260200190815260200160002054905081600a60008a81526020019081526020016000208281548110614838576148376155b0565b5b9060005260206000200160006101000a81548173ffffffffffffffffffffffffffffffffffffffff021916908373ffffffffffffffffffffffffffffffffffffffff16021790555080600b60008a815260200190815260200160002060008473ffffffffffffffffffffffffffffffffffffffff1673ffffffffffffffffffffffffffffffffffffffff16815260200190815260200160002081905550505b600b600088815260200190815260200160002060008773ffffffffffffffffffffffffffffffffffffffff1673ffffffffffffffffffffffffffffffffffffffff1681526020019081526020016000206000905550505b50505b505050565b600080600960008573ffffffffffffffffffffffffffffffffffffffff1673ffffffffffffffffffffffffffffffffffffffff168152602001908152602001600020600084815260200190815260200160002054905060008111806149fc575060006008600083815260200190815260200160002060008673ffffffffffffffffffffffffffffffffffffffff1673ffffffffffffffffffffffffffffffffffffffff168152602001908152602001600020600085815260200190815260200160002054115b614a0557600080fd5b6001600082815260200190815260200160002060009054906101000a900473ffffffffffffffffffffffffffffffffffffffff1691509250929050565b600080fd5b600080fd5b600073ffffffffffffffffffffffffffffffffffffffff82169050919050565b6000614a7782614a4c565b9050919050565b614a8781614a6c565b8114614a9257600080fd5b50565b600081359050614aa481614a7e565b92915050565b6000819050919050565b614abd81614aaa565b8114614ac857600080fd5b50565b600081359050614ada81614ab4565b92915050565b60008060008060808587031215614afa57614af9614a42565b5b6000614b0887828801614a95565b9450506020614b1987828801614acb565b9350506040614b2a87828801614a95565b9250506060614b3b87828801614acb565b91505092959194509250565b600060208284031215614b5d57614b5c614a42565b5b6000614b6b84828501614acb565b91505092915050565b614b7d81614a6c565b82525050565b6000602082019050614b986000830184614b74565b92915050565b600080fd5b600080fd5b600080fd5b60008083601f840112614bc357614bc2614b9e565b5b8235905067ffffffffffffffff811115614be057614bdf614ba3565b5b602083019150836001820283011115614bfc57614bfb614ba8565b5b9250929050565b600080600080600080600060c0888a031215614c2257614c21614a42565b5b6000614c308a828b01614acb565b9750506020614c418a828b01614a95565b9650506040614c528a828b01614acb565b9550506060614c638a828b01614a95565b9450506080614c748a828b01614acb565b93505060a088013567ffffffffffffffff811115614c9557614c94614a47565b5b614ca18a828b01614bad565b925092505092959891949750929550565b60008060408385031215614cc957614cc8614a42565b5b6000614cd785828601614a95565b9250506020614ce885828601614acb565b9150509250929050565b60008060408385031215614d0957614d08614a42565b5b6000614d1785828601614acb565b9250506020614d2885828601614acb565b9150509250929050565b600080600080600060808688031215614d4e57614d4d614a42565b5b6000614d5c88828901614a95565b9550506020614d6d88828901614a95565b9450506040614d7e88828901614acb565b935050606086013567ffffffffffffffff811115614d9f57614d9e614a47565b5b614dab88828901614bad565b92509250509295509295909350565b60007fffffffff0000000000000000000000000000000000000000000000000000000082169050919050565b614def81614dba565b82525050565b6000602082019050614e0a6000830184614de6565b92915050565b600080600060608486031215614e2957614e28614a42565b5b6000614e3786828701614acb565b9350506020614e4886828701614a95565b9250506040614e5986828701614acb565b9150509250925092565b614e6c81614aaa565b82525050565b6000602082019050614e876000830184614e63565b92915050565b60008060008060808587031215614ea757614ea6614a42565b5b6000614eb587828801614acb565b9450506020614ec687828801614a95565b9350506040614ed787828801614a95565b9250506060614ee887828801614acb565b91505092959194509250565b600080600060608486031215614f0d57614f0c614a42565b5b6000614f1b86828701614a95565b9350506020614f2c86828701614a95565b9250506040614f3d86828701614acb565b9150509250925092565b60008060408385031215614f5e57614f5d614a42565b5b6000614f6c85828601614acb565b9250506020614f7d85828601614a95565b9150509250929050565b6000819050919050565b614f9a81614f87565b82525050565b6000602082019050614fb56000830184614f91565b92915050565b60008115159050919050565b614fd081614fbb565b82525050565b6000602082019050614feb6000830184614fc7565b92915050565b60006020828403121561500757615006614a42565b5b600061501584828501614a95565b91505092915050565b60008060008060008060a0878903121561503b5761503a614a42565b5b600061504989828a01614acb565b965050602061505a89828a01614a95565b955050604061506b89828a01614a95565b945050606061507c89828a01614acb565b935050608087013567ffffffffffffffff81111561509d5761509c614a47565b5b6150a989828a01614bad565b92509250509295509295509295565b6150c181614fbb565b81146150cc57600080fd5b50565b6000813590506150de816150b8565b92915050565b600080604083850312156150fb576150fa614a42565b5b600061510985828601614a95565b925050602061511a858286016150cf565b9150509250929050565b6000806000806060858703121561513e5761513d614a42565b5b600061514c87828801614a95565b945050602061515d87828801614acb565b935050604085013567ffffffffffffffff81111561517e5761517d614a47565b5b61518a87828801614bad565b925092505092959194509250565b600080604083850312156151af576151ae614a42565b5b60006151bd85828601614a95565b92505060206151ce85828601614a95565b9150509250929050565b60006040820190506151ed6000830185614f91565b6151fa6020830184614e63565b9392505050565b60006040820190506152166000830185614b74565b6152236020830184614b74565b9392505050565b600082825260208201905092915050565b7f63616c6c20746f20616c6c6f77616e6365206661696c65640000000000000000600082015250565b600061527160188361522a565b915061527c8261523b565b602082019050919050565b600060208201905081810360008301526152a081615264565b9050919050565b7f56616c75652067726561746572207468616e2072656d61696e696e6700000000600082015250565b60006152dd601c8361522a565b91506152e8826152a7565b602082019050919050565b6000602082019050818103600083015261530c816152d0565b9050919050565b7f6e6f7420616c6c6f77656420746f206765744552433230000000000000000000600082015250565b600061534960178361522a565b915061535482615313565b602082019050919050565b600060208201905081810360008301526153788161533c565b9050919050565b60006060820190506153946000830186614b74565b6153a16020830185614b74565b6153ae6040830184614e63565b949350505050565b6000815190506153c5816150b8565b92915050565b6000602082840312156153e1576153e0614a42565b5b60006153ef848285016153b6565b91505092915050565b7f4552433230207472616e73666572206661696c65642e00000000000000000000600082015250565b600061542e60168361522a565b9150615439826153f8565b602082019050919050565b6000602082019050818103600083015261545d81615421565b9050919050565b600082825260208201905092915050565b82818337600083830152505050565b6000601f19601f8301169050919050565b60006154a18385615464565b93506154ae838584615475565b6154b783615484565b840190509392505050565b600060a0820190506154d76000830189614b74565b6154e46020830188614b74565b6154f16040830187614e63565b6154fe6060830186614e63565b8181036080830152615511818486615495565b9050979650505050505050565b7f436f6e7472616374206164647265737320646f6573206e6f742065786973742060008201527f666f72207468697320746f6b656e20616e6420696e6465782e00000000000000602082015250565b600061557a60398361522a565b91506155858261551e565b604082019050919050565b600060208201905081810360008301526155a98161556d565b9050919050565b7f4e487b7100000000000000000000000000000000000000000000000000000000600052603260045260246000fd5b7f5f64617461206d75737420636f6e7461696e207468652075696e74323536207460008201527f6f6b656e496420746f207472616e7366657220746865206368696c6420746f6b60208201527f656e20746f2e0000000000000000000000000000000000000000000000000000604082015250565b600061566160468361522a565b915061566c826155df565b606082019050919050565b6000602082019050818103600083015261569081615654565b9050919050565b7f4e487b7100000000000000000000000000000000000000000000000000000000600052601160045260246000fd5b60006156d182614aaa565b91506156dc83614aaa565b9250817fffffffffffffffffffffffffffffffffffffffffffffffffffffffffffffffff048311821515161561571557615714615697565b5b828202905092915050565b600061572b82614aaa565b915061573683614aaa565b92508282101561574957615748615697565b5b828203905092915050565b60008151905061576381614a7e565b92915050565b60006020828403121561577f5761577e614a42565b5b600061578d84828501615754565b91505092915050565b7f4368696c6420746f6b656e206e6f74206f776e65642e00000000000000000000600082015250565b60006157cc60168361522a565b91506157d782615796565b602082019050919050565b600060208201905081810360008301526157fb816157bf565b9050919050565b7f546f6b656e20646f6573206e6f74206f776e2061206368696c6420746f6b656e60008201527f20617420636f6e7472616374206164647265737320616e6420696e6465782e00602082015250565b600061585e603f8361522a565b915061586982615802565b604082019050919050565b6000602082019050818103600083015261588d81615851565b9050919050565b50565b60006158a4600083615464565b91506158af82615894565b600082019050919050565b60006080820190506158cf6000830186614b74565b6158dc6020830185614b74565b6158e96040830184614e63565b81810360608301526158fa81615897565b9050949350505050565b61590d81614dba565b811461591857600080fd5b50565b60008151905061592a81615904565b92915050565b60006020828403121561594657615945614a42565b5b60006159548482850161591b565b91505092915050565b600061596882614aaa565b91507fffffffffffffffffffffffffffffffffffffffffffffffffffffffffffffffff82141561599b5761599a615697565b5b600182019050919050565b60006040820190506159bb6000830185614b74565b6159c86020830184614e63565b9392505050565b60006080820190506159e46000830188614b74565b6159f16020830187614b74565b6159fe6040830186614e63565b8181036060830152615a11818486615495565b90509695505050505050565b6000819050919050565b6000615a42615a3d615a3884614a4c565b615a1d565b614a4c565b9050919050565b6000615a5482615a27565b9050919050565b6000615a6682615a49565b9050919050565b615a7681615a5b565b82525050565b6000604082019050615a916000830185615a6d565b615a9e6020830184614e63565b9392505050565b7f5f64617461206d75737420636f6e7461696e207468652075696e74323536207460008201527f6f6b656e496420746f207472616e736665722074686520746f6b656e20746f2e602082015250565b6000615b0160408361522a565b9150615b0c82615aa5565b604082019050919050565b60006020820190508181036000830152615b3081615af4565b9050919050565b7f6d73672e73656e646572206973206e6f74206120636f6e747261637400000000600082015250565b6000615b6d601c8361522a565b9150615b7882615b37565b602082019050919050565b60006020820190508181036000830152615b9c81615b60565b9050919050565b6000606082019050615bb86000830187614b74565b615bc56020830186614e63565b8181036040830152615bd8818486615495565b905095945050505050565b7f455243323233207472616e73666572206661696c65642e000000000000000000600082015250565b6000615c1960178361522a565b9150615c2482615be3565b602082019050919050565b60006020820190508181036000830152615c4881615c0c565b9050919050565b7f5f746f6b656e496420646f6573206e6f742065786973742e0000000000000000600082015250565b6000615c8560188361522a565b9150615c9082615c4f565b602082019050919050565b60006020820190508181036000830152615cb481615c78565b9050919050565b6000615cc682614aaa565b9150615cd183614aaa565b9250827fffffffffffffffffffffffffffffffffffffffffffffffffffffffffffffffff03821115615d0657615d05615697565b5b828201905092915050565b7f4368696c6420746f6b656e206e6f74206f776e656420627920746f6b656e2e00600082015250565b6000615d47601f8361522a565b9150615d5282615d11565b602082019050919050565b60006020820190508181036000830152615d7681615d3a565b9050919050565b7f43616e6e6f742072656365697665206368696c6420746f6b656e20626563617560008201527f73652069742068617320616c7265616479206265656e2072656365697665642e602082015250565b6000615dd960408361522a565b9150615de482615d7d565b604082019050919050565b60006020820190508181036000830152615e0881615dcc565b9050919050565b7f546f6b656e206973206368696c64206f66206f7468657220746f7020646f776e60008201527f20636f6d706f7361626c65000000000000000000000000000000000000000000602082015250565b6000615e6b602b8361522a565b9150615e7682615e0f565b604082019050919050565b60006020820190508181036000830152615e9a81615e5e565b9050919050565b7f4e487b7100000000000000000000000000000000000000000000000000000000600052600160045260246000fd5b6000615edb82614aaa565b91506000821415615eef57615eee615697565b5b600182039050919050565b7f4e6f7420656e6f75676820746f6b656e20617661696c61626c6520746f20747260008201527f616e736665722e00000000000000000000000000000000000000000000000000602082015250565b6000615f5660278361522a565b9150615f6182615efa565b604082019050919050565b60006020820190508181036000830152615f8581615f49565b905091905056fea2646970667358221220dbc33ba3779504ccd844532b8d66f4b37a6d53d8ffc34714563dbe7bf891631f64736f6c634300080b0033",
  "immutableReferences": {},
  "source": "// SPDX-License-Identifier: MIT\npragma solidity >=0.4.22 <0.9.0;\n\n// import \"./ERC721.sol\";\nimport \"./interfaces/IERC721Local.sol\";\nimport \"./interfaces/IERC721ReceiverLocal.sol\";\nimport \"./interfaces/IERC20AndERC223.sol\";\nimport \"./interfaces/IERC998ERC20TopDown.sol\";\nimport \"./interfaces/IERC998ERC20TopDownEnumerable.sol\";\nimport \"./interfaces/IERC998ERC721BottomUp.sol\";\nimport \"./interfaces/IERC998ERC721TopDown.sol\";\nimport \"./interfaces/IERC998ERC721TopDownEnumerable.sol\";\n\n\ncontract ComposableTopDown is IERC721Local, IERC998ERC721TopDown, IERC998ERC721TopDownEnumerable, IERC998ERC20TopDown, IERC998ERC20TopDownEnumerable {\n    // return this.rootOwnerOf.selector ^ this.rootOwnerOfChild.selector ^\n    //   this.tokenOwnerOf.selector ^ this.ownerOfChild.selector;\n    bytes32 constant ERC998_MAGIC_VALUE = bytes32(bytes4(0xcd740db5));\n\n    uint256 tokenCount = 0;\n\n    // tokenId => token owner\n    mapping(uint256 => address) internal tokenIdToTokenOwner;\n\n    // root token owner address => (tokenId => approved address)\n    mapping(address => mapping(uint256 => address)) internal rootOwnerAndTokenIdToApprovedAddress;\n\n    // token owner address => token count\n    mapping(address => uint256) internal tokenOwnerToTokenCount;\n\n    // token owner => (operator address => bool)\n    mapping(address => mapping(address => bool)) internal tokenOwnerToOperators;\n\n\n    //constructor(string _name, string _symbol) public ERC721Token(_name, _symbol) {}\n\n    // wrapper on minting new 721\n    function mint(address _to) public returns (uint256) {\n        tokenCount++;\n        uint256 tokenCount_ = tokenCount;\n        tokenIdToTokenOwner[tokenCount_] = _to;\n        tokenOwnerToTokenCount[_to]++;\n        return tokenCount_;\n    }\n    //from zepellin ERC721Receiver.sol\n    //old version\n    bytes4 constant ERC721_RECEIVED_OLD = 0xf0b9e5ba;\n    //new version\n    bytes4 constant ERC721_RECEIVED_NEW = 0x150b7a02;\n\n    ////////////////////////////////////////////////////////\n    // ERC721 implementation\n    ////////////////////////////////////////////////////////\n\n    function isContract(address _addr) internal view returns (bool) {\n        uint256 size;\n        assembly {size := extcodesize(_addr)}\n        return size > 0;\n    }\n\n    function rootOwnerOf(uint256 _tokenId) public view override returns (bytes32 rootOwner) {\n        return rootOwnerOfChild(address(0), _tokenId);\n    }\n\n    // returns the owner at the top of the tree of composables\n    // Use Cases handled:\n    // Case 1: Token owner is this contract and token.\n    // Case 2: Token owner is other top-down composable\n    // Case 3: Token owner is other contract\n    // Case 4: Token owner is user\n    function rootOwnerOfChild(address _childContract, uint256 _childTokenId) public view override returns (bytes32 rootOwner) {\n        address rootOwnerAddress;\n        if (_childContract != address(0)) {\n            (rootOwnerAddress, _childTokenId) = _ownerOfChild(_childContract, _childTokenId);\n        }\n        else {\n            rootOwnerAddress = tokenIdToTokenOwner[_childTokenId];\n        }\n        // Case 1: Token owner is this contract and token.\n        while (rootOwnerAddress == address(this)) {\n            (rootOwnerAddress, _childTokenId) = _ownerOfChild(rootOwnerAddress, _childTokenId);\n        }\n\n        bool callSuccess;\n        bytes memory callData;\n        // 0xed81cdda == rootOwnerOfChild(address,uint256)\n        callData = abi.encodeWithSelector(0xed81cdda, address(this), _childTokenId);\n        assembly {\n            callSuccess := staticcall(gas(), rootOwnerAddress, add(callData, 0x20), mload(callData), callData, 0x20)\n            if callSuccess {\n                rootOwner := mload(callData)\n            }\n        }\n        if(callSuccess == true && rootOwner >> 224 == ERC998_MAGIC_VALUE) {\n            // Case 2: Token owner is other top-down composable\n            return rootOwner;\n        }\n        else {\n            // Case 3: Token owner is other contract\n            // Or\n            // Case 4: Token owner is user\n            return ERC998_MAGIC_VALUE << 224 | bytes32(bytes20(rootOwnerAddress));\n        }\n    }\n\n\n    // returns the owner at the top of the tree of composables\n\n    function ownerOf(uint256 _tokenId) public view override returns (address tokenOwner) {\n        tokenOwner = tokenIdToTokenOwner[_tokenId];\n        require(tokenOwner != address(0));\n        return tokenOwner;\n    }\n\n    function balanceOf(address _tokenOwner) external view override returns (uint256) {\n        require(_tokenOwner != address(0));\n        return tokenOwnerToTokenCount[_tokenOwner];\n    }\n\n\n    function approve(address _approved, uint256 _tokenId) external override {\n        address rootOwner = address(bytes20(rootOwnerOf(_tokenId)));\n        require(rootOwner == msg.sender || tokenOwnerToOperators[rootOwner][msg.sender]);\n        rootOwnerAndTokenIdToApprovedAddress[rootOwner][_tokenId] = _approved;\n        emit Approval(rootOwner, _approved, _tokenId);\n    }\n\n    function getApproved(uint256 _tokenId) public view override returns (address)  {\n        address rootOwner = address(bytes20(rootOwnerOf(_tokenId)));\n        return rootOwnerAndTokenIdToApprovedAddress[rootOwner][_tokenId];\n    }\n\n    function setApprovalForAll(address _operator, bool _approved) external override {\n        require(_operator != address(0));\n        tokenOwnerToOperators[msg.sender][_operator] = _approved;\n        emit ApprovalForAll(msg.sender, _operator, _approved);\n    }\n\n    function isApprovedForAll(address _owner, address _operator) external view override returns (bool)  {\n        require(_owner != address(0));\n        require(_operator != address(0));\n        return tokenOwnerToOperators[_owner][_operator];\n    }\n\n\n    function _transferFrom(address _from, address _to, uint256 _tokenId) private {\n        require(_from != address(0));\n        require(tokenIdToTokenOwner[_tokenId] == _from);\n        require(_to != address(0));\n\n        if(msg.sender != _from) {\n            bytes32 rootOwner;\n            bool callSuccess;\n            // 0xed81cdda == rootOwnerOfChild(address,uint256)\n            bytes memory callData = abi.encodeWithSelector(0xed81cdda, address(this), _tokenId);\n            assembly {\n                callSuccess := staticcall(gas(), _from, add(callData, 0x20), mload(callData), callData, 0x20)\n                if callSuccess {\n                    rootOwner := mload(callData)\n                }\n            }\n            if(callSuccess == true) {\n                require(rootOwner >> 224 != ERC998_MAGIC_VALUE, \"Token is child of other top down composable\");\n            }\n            require(tokenOwnerToOperators[_from][msg.sender] ||\n            rootOwnerAndTokenIdToApprovedAddress[_from][_tokenId] == msg.sender);\n        }\n\n        // clear approval\n        if (rootOwnerAndTokenIdToApprovedAddress[_from][_tokenId] != address(0)) {\n            delete rootOwnerAndTokenIdToApprovedAddress[_from][_tokenId];\n            emit Approval(_from, address(0), _tokenId);\n        }\n\n        // remove and transfer token\n        if (_from != _to) {\n            assert(tokenOwnerToTokenCount[_from] > 0);\n            tokenOwnerToTokenCount[_from]--;\n            tokenIdToTokenOwner[_tokenId] = _to;\n            tokenOwnerToTokenCount[_to]++;\n        }\n        emit Transfer(_from, _to, _tokenId);\n\n    }\n\n    function transferFrom(address _from, address _to, uint256 _tokenId) external override {\n        _transferFrom(_from, _to, _tokenId);\n    }\n\n    function safeTransferFrom(address _from, address _to, uint256 _tokenId) external override{\n        _transferFrom(_from, _to, _tokenId);\n        if (isContract(_to)) {\n            bytes4 retval = IERC721ReceiverLocal(_to).onERC721Received(msg.sender, _from, _tokenId, \"\");\n            require(retval == ERC721_RECEIVED_OLD);\n        }\n    }\n\n    function safeTransferFrom(address _from, address _to, uint256 _tokenId, bytes calldata _data) external override {\n        _transferFrom(_from, _to, _tokenId);\n        if (isContract(_to)) {\n            bytes4 retval = IERC721ReceiverLocal(_to).onERC721Received(msg.sender, _from, _tokenId, _data);\n            require(retval == ERC721_RECEIVED_OLD);\n        }\n    }\n\n    ////////////////////////////////////////////////////////\n    // ERC998ERC721 and ERC998ERC721Enumerable implementation\n    ////////////////////////////////////////////////////////\n\n    // tokenId => child contract\n    mapping(uint256 => address[]) private childContracts;\n\n    // tokenId => (child address => contract index+1)\n    mapping(uint256 => mapping(address => uint256)) private childContractIndex;\n\n    // tokenId => (child address => array of child tokens)\n    mapping(uint256 => mapping(address => uint256[])) private childTokens;\n\n    // tokenId => (child address => (child token => child index+1)\n    mapping(uint256 => mapping(address => mapping(uint256 => uint256))) private childTokenIndex;\n\n    // child address => childId => tokenId\n    mapping(address => mapping(uint256 => uint256)) internal childTokenOwner;\n\n\n    function removeChild(uint256 _tokenId, address _childContract, uint256 _childTokenId) private {\n        uint256 tokenIndex = childTokenIndex[_tokenId][_childContract][_childTokenId];\n        require(tokenIndex != 0, \"Child token not owned by token.\");\n\n        // remove child token\n        uint256 lastTokenIndex = childTokens[_tokenId][_childContract].length - 1;\n        uint256 lastToken = childTokens[_tokenId][_childContract][lastTokenIndex];\n        if (_childTokenId == lastToken) {\n            childTokens[_tokenId][_childContract][tokenIndex - 1] = lastToken;\n            childTokenIndex[_tokenId][_childContract][lastToken] = tokenIndex;\n        }\n        // childTokens[_tokenId][_childContract].length--;\n        delete childTokenIndex[_tokenId][_childContract][_childTokenId];\n        delete childTokenOwner[_childContract][_childTokenId];\n\n        // remove contract\n        if (lastTokenIndex == 0) {\n            uint256 lastContractIndex = childContracts[_tokenId].length - 1;\n            address lastContract = childContracts[_tokenId][lastContractIndex];\n            if (_childContract != lastContract) {\n                uint256 contractIndex = childContractIndex[_tokenId][_childContract];\n                childContracts[_tokenId][contractIndex] = lastContract;\n                childContractIndex[_tokenId][lastContract] = contractIndex;\n            }\n            // childContracts[_tokenId].length--;\n            delete childContractIndex[_tokenId][_childContract];\n        }\n    }\n\n    function safeTransferChild(uint256 _fromTokenId, address _to, address _childContract, uint256 _childTokenId) external override{\n        uint256 tokenId = childTokenOwner[_childContract][_childTokenId];\n        require(tokenId > 0 || childTokenIndex[tokenId][_childContract][_childTokenId] > 0);\n        require(tokenId == _fromTokenId);\n        require(_to != address(0));\n        address rootOwner = address(bytes20(rootOwnerOf(tokenId)));\n        require(rootOwner == msg.sender || tokenOwnerToOperators[rootOwner][msg.sender] ||\n        rootOwnerAndTokenIdToApprovedAddress[rootOwner][tokenId] == msg.sender);\n        removeChild(tokenId, _childContract, _childTokenId);\n        IERC721Local(_childContract).safeTransferFrom(address(this), _to, _childTokenId);\n        emit TransferChild(tokenId, _to, _childContract, _childTokenId);\n    }\n\n    function safeTransferChild(uint256 _fromTokenId, address _to, address _childContract, uint256 _childTokenId, bytes calldata _data) external override {\n        uint256 tokenId = childTokenOwner[_childContract][_childTokenId];\n        require(tokenId > 0 || childTokenIndex[tokenId][_childContract][_childTokenId] > 0);\n        require(tokenId == _fromTokenId);\n        require(_to != address(0));\n        address rootOwner = address(bytes20(rootOwnerOf(tokenId)));\n        require(rootOwner == msg.sender || tokenOwnerToOperators[rootOwner][msg.sender] ||\n        rootOwnerAndTokenIdToApprovedAddress[rootOwner][tokenId] == msg.sender);\n        removeChild(tokenId, _childContract, _childTokenId);\n        IERC721Local(_childContract).safeTransferFrom(address(this), _to, _childTokenId, _data);\n        emit TransferChild(tokenId, _to, _childContract, _childTokenId);\n    }\n\n    function transferChild(uint256 _fromTokenId, address _to, address _childContract, uint256 _childTokenId) external override{\n        uint256 tokenId = childTokenOwner[_childContract][_childTokenId];\n        require(tokenId > 0 || childTokenIndex[tokenId][_childContract][_childTokenId] > 0);\n        require(tokenId == _fromTokenId);\n        require(_to != address(0));\n        address rootOwner = address(bytes20(rootOwnerOf(tokenId)));\n        require(rootOwner == msg.sender || tokenOwnerToOperators[rootOwner][msg.sender] ||\n        rootOwnerAndTokenIdToApprovedAddress[rootOwner][tokenId] == msg.sender);\n        removeChild(tokenId, _childContract, _childTokenId);\n        //this is here to be compatible with cryptokitties and other old contracts that require being owner and approved\n        // before transferring.\n        //does not work with current standard which does not allow approving self, so we must let it fail in that case.\n        //0x095ea7b3 == \"approve(address,uint256)\"\n        bytes memory callData = abi.encodeWithSelector(0x095ea7b3, this, _childTokenId);\n        assembly {\n            let success := call(gas(), _childContract, 0, add(callData, 0x20), mload(callData), callData, 0)\n        }\n        IERC721Local(_childContract).transferFrom(address(this), _to, _childTokenId);\n        emit TransferChild(tokenId, _to, _childContract, _childTokenId);\n    }\n\n    function transferChildToParent(uint256 _fromTokenId, address _toContract, uint256 _toTokenId, address _childContract, uint256 _childTokenId, bytes calldata _data) external override{\n        uint256 tokenId = childTokenOwner[_childContract][_childTokenId];\n        require(tokenId > 0 || childTokenIndex[tokenId][_childContract][_childTokenId] > 0);\n        require(tokenId == _fromTokenId);\n        require(_toContract != address(0));\n        address rootOwner = address(bytes20(rootOwnerOf(tokenId)));\n        require(rootOwner == msg.sender || tokenOwnerToOperators[rootOwner][msg.sender] ||\n        rootOwnerAndTokenIdToApprovedAddress[rootOwner][tokenId] == msg.sender);\n        removeChild(_fromTokenId, _childContract, _childTokenId);\n        IERC998ERC721BottomUp(_childContract).transferToParent(address(this), _toContract, _toTokenId, _childTokenId, _data);\n        emit TransferChild(_fromTokenId, _toContract, _childContract, _childTokenId);\n    }\n\n\n    // this contract has to be approved first in _childContract\n    function getChild(address _from, uint256 _tokenId, address _childContract, uint256 _childTokenId) external override{\n        receiveChild(_from, _tokenId, _childContract, _childTokenId);\n        require(_from == msg.sender ||\n        IERC721Local(_childContract).isApprovedForAll(_from, msg.sender) ||\n        IERC721Local(_childContract).getApproved(_childTokenId) == msg.sender);\n        IERC721Local(_childContract).transferFrom(_from, address(this), _childTokenId);\n\n    }\n\n    function onERC721Received(address _from, uint256 _childTokenId, bytes calldata _data) external returns (bytes4) {\n        require(_data.length > 0, \"_data must contain the uint256 tokenId to transfer the child token to.\");\n        // convert up to 32 bytes of_data to uint256, owner nft tokenId passed as uint in bytes\n        uint256 tokenId;\n        assembly {tokenId := calldataload(132)}\n        if (_data.length < 32) {\n            tokenId = tokenId >> 256 - _data.length * 8;\n        }\n        receiveChild(_from, tokenId, msg.sender, _childTokenId);\n        require(IERC721Local(msg.sender).ownerOf(_childTokenId) != address(0), \"Child token not owned.\");\n        return ERC721_RECEIVED_OLD;\n    }\n\n\n    function onERC721Received(address _operator, address _from, uint256 _childTokenId, bytes calldata _data) external override returns (bytes4) {\n        require(_data.length > 0, \"_data must contain the uint256 tokenId to transfer the child token to.\");\n        // convert up to 32 bytes of_data to uint256, owner nft tokenId passed as uint in bytes\n        uint256 tokenId;\n        assembly {tokenId := calldataload(164)}\n        if (_data.length < 32) {\n            tokenId = tokenId >> 256 - _data.length * 8;\n        }\n        receiveChild(_from, tokenId, msg.sender, _childTokenId);\n        require(IERC721Local(msg.sender).ownerOf(_childTokenId) != address(0), \"Child token not owned.\");\n        return ERC721_RECEIVED_NEW;\n    }\n\n\n    function receiveChild(address _from, uint256 _tokenId, address _childContract, uint256 _childTokenId) private {\n        require(tokenIdToTokenOwner[_tokenId] != address(0), \"_tokenId does not exist.\");\n        require(childTokenIndex[_tokenId][_childContract][_childTokenId] == 0, \"Cannot receive child token because it has already been received.\");\n        uint256 childTokensLength = childTokens[_tokenId][_childContract].length;\n        if (childTokensLength == 0) {\n            childContractIndex[_tokenId][_childContract] = childContracts[_tokenId].length;\n            childContracts[_tokenId].push(_childContract);\n        }\n        childTokens[_tokenId][_childContract].push(_childTokenId);\n        childTokenIndex[_tokenId][_childContract][_childTokenId] = childTokensLength + 1;\n        childTokenOwner[_childContract][_childTokenId] = _tokenId;\n        emit ReceivedChild(_from, _tokenId, _childContract, _childTokenId);\n    }\n\n    function _ownerOfChild(address _childContract, uint256 _childTokenId) internal view returns (address parentTokenOwner, uint256 parentTokenId) {\n        parentTokenId = childTokenOwner[_childContract][_childTokenId];\n        require(parentTokenId > 0 || childTokenIndex[parentTokenId][_childContract][_childTokenId] > 0);\n        return (tokenIdToTokenOwner[parentTokenId], parentTokenId);\n    }\n\n    function ownerOfChild(address _childContract, uint256 _childTokenId) external view override returns (bytes32 parentTokenOwner, uint256 parentTokenId) {\n        parentTokenId = childTokenOwner[_childContract][_childTokenId];\n        require(parentTokenId > 0 || childTokenIndex[parentTokenId][_childContract][_childTokenId] > 0);\n        return (ERC998_MAGIC_VALUE << 224 | bytes32(bytes20(tokenIdToTokenOwner[parentTokenId])), parentTokenId);\n    }\n\n    function childExists(address _childContract, uint256 _childTokenId) external view returns (bool) {\n        uint256 tokenId = childTokenOwner[_childContract][_childTokenId];\n        return childTokenIndex[tokenId][_childContract][_childTokenId] != 0;\n    }\n\n    function totalChildContracts(uint256 _tokenId) external view override returns (uint256) {\n        return childContracts[_tokenId].length;\n    }\n\n    function childContractByIndex(uint256 _tokenId, uint256 _index) external view override returns (address childContract) {\n        require(_index < childContracts[_tokenId].length, \"Contract address does not exist for this token and index.\");\n        return childContracts[_tokenId][_index];\n    }\n\n    function totalChildTokens(uint256 _tokenId, address _childContract) external view override returns (uint256) {\n        return childTokens[_tokenId][_childContract].length;\n    }\n\n    function childTokenByIndex(uint256 _tokenId, address _childContract, uint256 _index) external view override returns (uint256 childTokenId) {\n        require(_index < childTokens[_tokenId][_childContract].length, \"Token does not own a child token at contract address and index.\");\n        return childTokens[_tokenId][_childContract][_index];\n    }\n\n    ////////////////////////////////////////////////////////\n    // ERC998ERC223 and ERC998ERC223Enumerable implementation\n    ////////////////////////////////////////////////////////\n\n    // tokenId => token contract\n    mapping(uint256 => address[]) erc20Contracts;\n\n    // tokenId => (token contract => token contract index)\n    mapping(uint256 => mapping(address => uint256)) erc20ContractIndex;\n\n    // tokenId => (token contract => balance)\n    mapping(uint256 => mapping(address => uint256)) erc20Balances;\n\n    function balanceOfERC20(uint256 _tokenId, address _erc20Contract) external view returns (uint256) {\n        return erc20Balances[_tokenId][_erc20Contract];\n    }\n\n    function removeERC20(uint256 _tokenId, address _erc20Contract, uint256 _value) private {\n        if (_value == 0) {\n            return;\n        }\n        uint256 erc20Balance = erc20Balances[_tokenId][_erc20Contract];\n        require(erc20Balance >= _value, \"Not enough token available to transfer.\");\n        uint256 newERC20Balance = erc20Balance - _value;\n        erc20Balances[_tokenId][_erc20Contract] = newERC20Balance;\n        if (newERC20Balance == 0) {\n            uint256 lastContractIndex = erc20Contracts[_tokenId].length - 1;\n            address lastContract = erc20Contracts[_tokenId][lastContractIndex];\n            if (_erc20Contract != lastContract) {\n                uint256 contractIndex = erc20ContractIndex[_tokenId][_erc20Contract];\n                erc20Contracts[_tokenId][contractIndex] = lastContract;\n                erc20ContractIndex[_tokenId][lastContract] = contractIndex;\n            }\n            // erc20Contracts[_tokenId].length--;\n            delete erc20ContractIndex[_tokenId][_erc20Contract];\n        }\n    }\n\n\n    function transferERC20(uint256 _tokenId, address _to, address _erc20Contract, uint256 _value) external override{\n        require(_to != address(0));\n        address rootOwner = address(bytes20(rootOwnerOf(_tokenId)));\n        require(rootOwner == msg.sender || tokenOwnerToOperators[rootOwner][msg.sender] ||\n        rootOwnerAndTokenIdToApprovedAddress[rootOwner][_tokenId] == msg.sender);\n        removeERC20(_tokenId, _erc20Contract, _value);\n        require(IERC20AndERC223(_erc20Contract).transfer(_to, _value), \"ERC20 transfer failed.\");\n        emit TransferERC20(_tokenId, _to, _erc20Contract, _value);\n    }\n\n    // implementation of ERC 223\n    function transferERC223(uint256 _tokenId, address _to, address _erc223Contract, uint256 _value, bytes calldata _data) external override{\n        require(_to != address(0));\n        address rootOwner = address(bytes20(rootOwnerOf(_tokenId)));\n        require(rootOwner == msg.sender || tokenOwnerToOperators[rootOwner][msg.sender] ||\n        rootOwnerAndTokenIdToApprovedAddress[rootOwner][_tokenId] == msg.sender);\n        removeERC20(_tokenId, _erc223Contract, _value);\n        require(IERC20AndERC223(_erc223Contract).transfer(_to, _value, _data), \"ERC223 transfer failed.\");\n        emit TransferERC20(_tokenId, _to, _erc223Contract, _value);\n    }\n\n    // this contract has to be approved first by _erc20Contract\n    function getERC20(address _from, uint256 _tokenId, address _erc20Contract, uint256 _value) public override{\n        bool allowed = _from == msg.sender;\n        if (!allowed) {\n            uint256 remaining;\n            // 0xdd62ed3e == allowance(address,address)\n            bytes memory callData = abi.encodeWithSelector(0xdd62ed3e, _from, msg.sender);\n            bool callSuccess;\n            assembly {\n                callSuccess := staticcall(gas(), _erc20Contract, add(callData, 0x20), mload(callData), callData, 0x20)\n                if callSuccess {\n                    remaining := mload(callData)\n                }\n            }\n            require(callSuccess, \"call to allowance failed\");\n            require(remaining >= _value, \"Value greater than remaining\");\n            allowed = true;\n        }\n        require(allowed, \"not allowed to getERC20\");\n        erc20Received(_from, _tokenId, _erc20Contract, _value);\n        require(IERC20AndERC223(_erc20Contract).transferFrom(_from, address(this), _value), \"ERC20 transfer failed.\");\n    }\n\n    function erc20Received(address _from, uint256 _tokenId, address _erc20Contract, uint256 _value) private {\n        require(tokenIdToTokenOwner[_tokenId] != address(0), \"_tokenId does not exist.\");\n        if (_value == 0) {\n            return;\n        }\n        uint256 erc20Balance = erc20Balances[_tokenId][_erc20Contract];\n        if (erc20Balance == 0) {\n            erc20ContractIndex[_tokenId][_erc20Contract] = erc20Contracts[_tokenId].length;\n            erc20Contracts[_tokenId].push(_erc20Contract);\n        }\n        erc20Balances[_tokenId][_erc20Contract] += _value;\n        emit ReceivedERC20(_from, _tokenId, _erc20Contract, _value);\n    }\n\n    // used by ERC 223\n    function tokenFallback(address _from, uint256 _value, bytes calldata _data) external override{\n        require(_data.length > 0, \"_data must contain the uint256 tokenId to transfer the token to.\");\n        require(isContract(msg.sender), \"msg.sender is not a contract\");\n        /**************************************\n        * TODO move to library\n        **************************************/\n        // convert up to 32 bytes of_data to uint256, owner nft tokenId passed as uint in bytes\n        uint256 tokenId;\n        assembly {\n            tokenId := calldataload(132)\n        }\n        if (_data.length < 32) {\n            tokenId = tokenId >> 256 - _data.length * 8;\n        }\n        //END TODO\n        erc20Received(_from, tokenId, msg.sender, _value);\n    }\n\n\n    function erc20ContractByIndex(uint256 _tokenId, uint256 _index) external view override returns (address) {\n        require(_index < erc20Contracts[_tokenId].length, \"Contract address does not exist for this token and index.\");\n        return erc20Contracts[_tokenId][_index];\n    }\n\n    function totalERC20Contracts(uint256 _tokenId) external view override returns (uint256) {\n        return erc20Contracts[_tokenId].length;\n    }\n\n}",
  "sourcePath": "/Users/parv/Desktop/cNFT/contracts/ComposableTopDown.sol",
  "compiler": {
    "name": "solc",
    "version": "0.8.11+commit.d7f03943.Emscripten.clang"
  },
  "schemaVersion": "3.4.4",
  "updatedAt": "2022-05-18T05:20:25.661Z",
  "networkType": "ethereum",
  "devdoc": {
    "kind": "dev",
    "methods": {
      "approve(address,uint256)": {
        "details": "The zero address indicates there is no approved address.  Throws unless `msg.sender` is the current NFT owner, or an authorized  operator of the current owner.",
        "params": {
          "_approved": "The new approved NFT controller",
          "_tokenId": "The NFT to approve"
        }
      },
      "getApproved(uint256)": {
        "details": "Throws if `_tokenId` is not a valid NFT.",
        "params": {
          "_tokenId": "The NFT to find the approved address for"
        },
        "returns": {
          "_0": "The approved address for this NFT, or the zero address if there is none"
        }
      },
      "isApprovedForAll(address,address)": {
        "params": {
          "_operator": "The address that acts on behalf of the owner",
          "_owner": "The address that owns the NFTs"
        },
        "returns": {
          "_0": "True if `_operator` is an approved operator for `_owner`, false otherwise"
        }
      },
      "ownerOf(uint256)": {
        "details": "NFTs assigned to zero address are considered invalid, and queries  about them do throw.",
        "params": {
          "_tokenId": "The identifier for an NFT"
        },
        "returns": {
          "tokenOwner": "The address of the owner of the NFT"
        }
      },
      "safeTransferFrom(address,address,uint256)": {
        "details": "This works identically to the other function with an extra data parameter,  except this function just sets data to \"\".",
        "params": {
          "_from": "The current owner of the NFT",
          "_to": "The new owner",
          "_tokenId": "The NFT to transfer"
        }
      },
      "setApprovalForAll(address,bool)": {
        "details": "Emits the ApprovalForAll event. The contract MUST allow  multiple operators per owner.",
        "params": {
          "_approved": "True if the operator is approved, false to revoke approval",
          "_operator": "Address to add to the set of authorized operators"
        }
      },
      "transferFrom(address,address,uint256)": {
        "details": "Throws unless `msg.sender` is the current owner, an authorized  operator, or the approved address for this NFT. Throws if `_from` is  not the current owner. Throws if `_to` is the zero address. Throws if  `_tokenId` is not a valid NFT.",
        "params": {
          "_from": "The current owner of the NFT",
          "_to": "The new owner",
          "_tokenId": "The NFT to transfer"
        }
      }
    },
    "version": 1
  },
  "userdoc": {
    "kind": "user",
    "methods": {
      "approve(address,uint256)": {
        "notice": "Change or reaffirm the approved address for an NFT"
      },
      "getApproved(uint256)": {
        "notice": "Get the approved address for a single NFT"
      },
      "isApprovedForAll(address,address)": {
        "notice": "Query if an address is an authorized operator for another address"
      },
      "ownerOf(uint256)": {
        "notice": "Find the owner of an NFT"
      },
      "safeTransferFrom(address,address,uint256)": {
        "notice": "Transfers the ownership of an NFT from one address to another address"
      },
      "setApprovalForAll(address,bool)": {
        "notice": "Enable or disable approval for a third party (\"operator\") to manage  all of `msg.sender`'s assets"
      },
      "transferFrom(address,address,uint256)": {
        "notice": "Transfer ownership of an NFT -- THE CALLER IS RESPONSIBLE  TO CONFIRM THAT `_to` IS CAPABLE OF RECEIVING NFTS OR ELSE  THEY MAY BE PERMANENTLY LOST"
      }
    },
    "version": 1
  }
}